{
  "_format": "hh-sol-artifact-1",
  "contractName": "CrowdFundingPacked",
  "sourceName": "contracts/crowdfunding_varpacking.sol",
  "abi": [
    {
      "inputs": [
        {
          "internalType": "uint256",
          "name": "",
          "type": "uint256"
        }
      ],
      "name": "campaigns",
      "outputs": [
        {
          "internalType": "address",
          "name": "owner",
          "type": "address"
        },
        {
          "internalType": "uint128",
          "name": "target",
          "type": "uint128"
        },
        {
          "internalType": "uint128",
          "name": "amountCollected",
          "type": "uint128"
        },
        {
          "internalType": "uint64",
          "name": "deadline",
          "type": "uint64"
        },
        {
          "internalType": "bytes32",
          "name": "titleHash",
          "type": "bytes32"
        },
        {
          "internalType": "bytes32",
          "name": "descriptionHash",
          "type": "bytes32"
        }
      ],
      "stateMutability": "view",
      "type": "function"
    },
    {
      "inputs": [
        {
          "internalType": "address",
          "name": "_owner",
          "type": "address"
        },
        {
          "internalType": "string",
          "name": "_title",
          "type": "string"
        },
        {
          "internalType": "string",
          "name": "_description",
          "type": "string"
        },
        {
          "internalType": "uint128",
          "name": "_target",
          "type": "uint128"
        },
        {
          "internalType": "uint64",
          "name": "_deadline",
          "type": "uint64"
        }
      ],
      "name": "createCampaign",
      "outputs": [
        {
          "internalType": "uint256",
          "name": "",
          "type": "uint256"
        }
      ],
      "stateMutability": "nonpayable",
      "type": "function"
    },
    {
      "inputs": [
        {
          "internalType": "uint256",
          "name": "_id",
          "type": "uint256"
        }
      ],
      "name": "donateToCampaign",
      "outputs": [],
      "stateMutability": "payable",
      "type": "function"
    },
    {
      "inputs": [
        {
          "internalType": "uint256",
          "name": "",
          "type": "uint256"
        },
        {
          "internalType": "uint256",
          "name": "",
          "type": "uint256"
        }
      ],
      "name": "donations",
      "outputs": [
        {
          "internalType": "uint256",
          "name": "",
          "type": "uint256"
        }
      ],
      "stateMutability": "view",
      "type": "function"
    },
    {
      "inputs": [
        {
          "internalType": "uint256",
          "name": "",
          "type": "uint256"
        },
        {
          "internalType": "uint256",
          "name": "",
          "type": "uint256"
        }
      ],
      "name": "donators",
      "outputs": [
        {
          "internalType": "address",
          "name": "",
          "type": "address"
        }
      ],
      "stateMutability": "view",
      "type": "function"
    },
    {
      "inputs": [
        {
          "internalType": "uint256",
          "name": "_id",
          "type": "uint256"
        }
      ],
      "name": "getCampaign",
      "outputs": [
        {
          "internalType": "address",
          "name": "owner",
          "type": "address"
        },
        {
          "internalType": "uint128",
          "name": "target",
          "type": "uint128"
        },
        {
          "internalType": "uint128",
          "name": "amountCollected",
          "type": "uint128"
        },
        {
          "internalType": "uint64",
          "name": "deadline",
          "type": "uint64"
        },
        {
          "internalType": "bytes32",
          "name": "titleHash",
          "type": "bytes32"
        },
        {
          "internalType": "bytes32",
          "name": "descriptionHash",
          "type": "bytes32"
        }
      ],
      "stateMutability": "view",
      "type": "function"
    },
    {
      "inputs": [
        {
          "internalType": "uint256",
          "name": "_id",
          "type": "uint256"
        }
      ],
      "name": "getDonators",
      "outputs": [
        {
          "internalType": "address[]",
          "name": "",
          "type": "address[]"
        },
        {
          "internalType": "uint256[]",
          "name": "",
          "type": "uint256[]"
        }
      ],
      "stateMutability": "view",
      "type": "function"
    },
    {
      "inputs": [],
      "name": "getNumberOfCampaigns",
      "outputs": [
        {
          "internalType": "uint256",
          "name": "",
          "type": "uint256"
        }
      ],
      "stateMutability": "view",
      "type": "function"
    },
    {
      "inputs": [],
      "name": "numberOfCampaigns",
      "outputs": [
        {
          "internalType": "uint256",
          "name": "",
          "type": "uint256"
        }
      ],
      "stateMutability": "view",
      "type": "function"
    }
  ],
  "bytecode": "0x6080604052600060035534801561001557600080fd5b50611363806100256000396000f3fe6080604052600436106100865760003560e01c806342a4fda81161005957806342a4fda81461017357806348f7b12e1461018f5780635598f8cc146101cc578063b69874b91461020e578063e4aafc2c1461024b57610086565b806307ca140d1461008b5780630fa91fa9146100b6578063141961bc146100f457806329061cd714610136575b600080fd5b34801561009757600080fd5b506100a0610276565b6040516100ad9190610a6b565b60405180910390f35b3480156100c257600080fd5b506100dd60048036038101906100d89190610ac6565b61027c565b6040516100eb929190610ca1565b60405180910390f35b34801561010057600080fd5b5061011b60048036038101906101169190610ac6565b610388565b60405161012d96959493929190610d4e565b60405180910390f35b34801561014257600080fd5b5061015d60048036038101906101589190610f79565b610430565b60405161016a9190610a6b565b60405180910390f35b61018d60048036038101906101889190610ac6565b61060c565b005b34801561019b57600080fd5b506101b660048036038101906101b1919061102c565b61083b565b6040516101c39190610a6b565b60405180910390f35b3480156101d857600080fd5b506101f360048036038101906101ee9190610ac6565b61086c565b60405161020596959493929190610d4e565b60405180910390f35b34801561021a57600080fd5b506102356004803603810190610230919061102c565b6109fa565b604051610242919061106c565b60405180910390f35b34801561025757600080fd5b50610260610a48565b60405161026d9190610a6b565b60405180910390f35b60035481565b60608060016000848152602001908152602001600020600260008581526020019081526020016000208180548060200260200160405190810160405280929190818152602001828054801561032657602002820191906000526020600020905b8160009054906101000a900473ffffffffffffffffffffffffffffffffffffffff1673ffffffffffffffffffffffffffffffffffffffff16815260200190600101908083116102dc575b505050505091508080548060200260200160405190810160405280929190818152602001828054801561037857602002820191906000526020600020905b815481526020019060010190808311610364575b5050505050905091509150915091565b60006020528060005260406000206000915090508060000160009054906101000a900473ffffffffffffffffffffffffffffffffffffffff16908060010160009054906101000a90046fffffffffffffffffffffffffffffffff16908060010160109054906101000a90046fffffffffffffffffffffffffffffffff16908060020160009054906101000a900467ffffffffffffffff16908060030154908060040154905086565b6000428267ffffffffffffffff161161047e576040517f08c379a0000000000000000000000000000000000000000000000000000000008152600401610475906110e4565b60405180910390fd5b600080600060035481526020019081526020016000209050868160000160006101000a81548173ffffffffffffffffffffffffffffffffffffffff021916908373ffffffffffffffffffffffffffffffffffffffff160217905550838160010160006101000a8154816fffffffffffffffffffffffffffffffff02191690836fffffffffffffffffffffffffffffffff16021790555060008160010160106101000a8154816fffffffffffffffffffffffffffffffff02191690836fffffffffffffffffffffffffffffffff160217905550828160020160006101000a81548167ffffffffffffffff021916908367ffffffffffffffff1602179055508560405160200161058c9190611175565b604051602081830303815290604052805190602001208160030181905550846040516020016105bb9190611175565b604051602081830303815290604052805190602001208160040181905550600360008154809291906105ec906111bb565b919050555060016003546106009190611203565b91505095945050505050565b6000349050600080600084815260200190815260200160002090508060020160009054906101000a900467ffffffffffffffff1667ffffffffffffffff16421061068b576040517f08c379a000000000000000000000000000000000000000000000000000000000815260040161068290611283565b60405180910390fd5b60016000848152602001908152602001600020339080600181540180825580915050600190039060005260206000200160009091909190916101000a81548173ffffffffffffffffffffffffffffffffffffffff021916908373ffffffffffffffffffffffffffffffffffffffff1602179055506002600084815260200190815260200160002082908060018154018082558091505060019003906000526020600020016000909190919091505560008160000160009054906101000a900473ffffffffffffffffffffffffffffffffffffffff1673ffffffffffffffffffffffffffffffffffffffff1683604051610783906112d4565b60006040518083038185875af1925050503d80600081146107c0576040519150601f19603f3d011682016040523d82523d6000602084013e6107c5565b606091505b50509050801561083557828260010160108282829054906101000a90046fffffffffffffffffffffffffffffffff166107fe91906112e9565b92506101000a8154816fffffffffffffffffffffffffffffffff02191690836fffffffffffffffffffffffffffffffff1602179055505b50505050565b6002602052816000526040600020818154811061085757600080fd5b90600052602060002001600091509150505481565b60008060008060008060008060008981526020019081526020016000206040518060c00160405290816000820160009054906101000a900473ffffffffffffffffffffffffffffffffffffffff1673ffffffffffffffffffffffffffffffffffffffff1673ffffffffffffffffffffffffffffffffffffffff1681526020016001820160009054906101000a90046fffffffffffffffffffffffffffffffff166fffffffffffffffffffffffffffffffff166fffffffffffffffffffffffffffffffff1681526020016001820160109054906101000a90046fffffffffffffffffffffffffffffffff166fffffffffffffffffffffffffffffffff166fffffffffffffffffffffffffffffffff1681526020016002820160009054906101000a900467ffffffffffffffff1667ffffffffffffffff1667ffffffffffffffff168152602001600382015481526020016004820154815250509050806000015181602001518260400151836060015184608001518560a001519650965096509650965096505091939550919395565b60016020528160005260406000208181548110610a1657600080fd5b906000526020600020016000915091509054906101000a900473ffffffffffffffffffffffffffffffffffffffff1681565b6000600354905090565b6000819050919050565b610a6581610a52565b82525050565b6000602082019050610a806000830184610a5c565b92915050565b6000604051905090565b600080fd5b600080fd5b610aa381610a52565b8114610aae57600080fd5b50565b600081359050610ac081610a9a565b92915050565b600060208284031215610adc57610adb610a90565b5b6000610aea84828501610ab1565b91505092915050565b600081519050919050565b600082825260208201905092915050565b6000819050602082019050919050565b600073ffffffffffffffffffffffffffffffffffffffff82169050919050565b6000610b4a82610b1f565b9050919050565b610b5a81610b3f565b82525050565b6000610b6c8383610b51565b60208301905092915050565b6000602082019050919050565b6000610b9082610af3565b610b9a8185610afe565b9350610ba583610b0f565b8060005b83811015610bd6578151610bbd8882610b60565b9750610bc883610b78565b925050600181019050610ba9565b5085935050505092915050565b600081519050919050565b600082825260208201905092915050565b6000819050602082019050919050565b610c1881610a52565b82525050565b6000610c2a8383610c0f565b60208301905092915050565b6000602082019050919050565b6000610c4e82610be3565b610c588185610bee565b9350610c6383610bff565b8060005b83811015610c94578151610c7b8882610c1e565b9750610c8683610c36565b925050600181019050610c67565b5085935050505092915050565b60006040820190508181036000830152610cbb8185610b85565b90508181036020830152610ccf8184610c43565b90509392505050565b610ce181610b3f565b82525050565b60006fffffffffffffffffffffffffffffffff82169050919050565b610d0c81610ce7565b82525050565b600067ffffffffffffffff82169050919050565b610d2f81610d12565b82525050565b6000819050919050565b610d4881610d35565b82525050565b600060c082019050610d636000830189610cd8565b610d706020830188610d03565b610d7d6040830187610d03565b610d8a6060830186610d26565b610d976080830185610d3f565b610da460a0830184610d3f565b979650505050505050565b610db881610b3f565b8114610dc357600080fd5b50565b600081359050610dd581610daf565b92915050565b600080fd5b600080fd5b6000601f19601f8301169050919050565b7f4e487b7100000000000000000000000000000000000000000000000000000000600052604160045260246000fd5b610e2e82610de5565b810181811067ffffffffffffffff82111715610e4d57610e4c610df6565b5b80604052505050565b6000610e60610a86565b9050610e6c8282610e25565b919050565b600067ffffffffffffffff821115610e8c57610e8b610df6565b5b610e9582610de5565b9050602081019050919050565b82818337600083830152505050565b6000610ec4610ebf84610e71565b610e56565b905082815260208101848484011115610ee057610edf610de0565b5b610eeb848285610ea2565b509392505050565b600082601f830112610f0857610f07610ddb565b5b8135610f18848260208601610eb1565b91505092915050565b610f2a81610ce7565b8114610f3557600080fd5b50565b600081359050610f4781610f21565b92915050565b610f5681610d12565b8114610f6157600080fd5b50565b600081359050610f7381610f4d565b92915050565b600080600080600060a08688031215610f9557610f94610a90565b5b6000610fa388828901610dc6565b955050602086013567ffffffffffffffff811115610fc457610fc3610a95565b5b610fd088828901610ef3565b945050604086013567ffffffffffffffff811115610ff157610ff0610a95565b5b610ffd88828901610ef3565b935050606061100e88828901610f38565b925050608061101f88828901610f64565b9150509295509295909350565b6000806040838503121561104357611042610a90565b5b600061105185828601610ab1565b925050602061106285828601610ab1565b9150509250929050565b60006020820190506110816000830184610cd8565b92915050565b600082825260208201905092915050565b7f446561646c696e65206d75737420626520696e20667574757265000000000000600082015250565b60006110ce601a83611087565b91506110d982611098565b602082019050919050565b600060208201905081810360008301526110fd816110c1565b9050919050565b600081519050919050565b600081905092915050565b60005b8381101561113857808201518184015260208101905061111d565b60008484015250505050565b600061114f82611104565b611159818561110f565b935061116981856020860161111a565b80840191505092915050565b60006111818284611144565b915081905092915050565b7f4e487b7100000000000000000000000000000000000000000000000000000000600052601160045260246000fd5b60006111c682610a52565b91507fffffffffffffffffffffffffffffffffffffffffffffffffffffffffffffffff82036111f8576111f761118c565b5b600182019050919050565b600061120e82610a52565b915061121983610a52565b92508282039050818111156112315761123061118c565b5b92915050565b7f43616d706169676e20656e646564000000000000000000000000000000000000600082015250565b600061126d600e83611087565b915061127882611237565b602082019050919050565b6000602082019050818103600083015261129c81611260565b9050919050565b600081905092915050565b50565b60006112be6000836112a3565b91506112c9826112ae565b600082019050919050565b60006112df826112b1565b9150819050919050565b60006112f482610ce7565b91506112ff83610ce7565b925082820190506fffffffffffffffffffffffffffffffff8111156113275761132661118c565b5b9291505056fea264697066735822122079beb5b8ec0eb012846a822f5a8d3468808b499f44587fae6c5cf90b36368b3664736f6c63430008120033",
  "linkReferences": {},
  "deployedLinkReferences": {}
}